{
  "contractName": "AvgOnDemand",
  "abi": [
    {
      "constant": false,
      "inputs": [
        {
          "name": "n",
          "type": "int256"
        }
      ],
      "name": "add",
      "outputs": [],
      "payable": false,
      "stateMutability": "nonpayable",
      "type": "function"
    },
    {
      "constant": false,
      "inputs": [],
      "name": "calc",
      "outputs": [
        {
          "name": "",
          "type": "int256"
        }
      ],
      "payable": false,
      "stateMutability": "nonpayable",
      "type": "function"
    }
  ],
  "bytecode": "0x608060405234801561001057600080fd5b50610113806100206000396000f3fe6080604052600436106049576000357c0100000000000000000000000000000000000000000000000000000000900463ffffffff16806387db03b714604e57806396f1b6be146085575b600080fd5b348015605957600080fd5b50608360048036036020811015606e57600080fd5b810190808035906020019092919050505060ad565b005b348015609057600080fd5b50609760d1565b6040518082815260200191505060405180910390f35b80600080828254019250508190555060016000815480929190600101919050555050565b600060015460005481151560e157fe5b0590509056fea165627a7a723058206f54f5b12d77b3c7ba81407e51856b1654febf57ef3d6f240c9ec7c93ee9e74f0029",
  "source": "pragma solidity ^0.5.0;\r\n\r\ncontract AvgOnDemand {\r\n   int256 sum;\r\n   int256 count;\r\n   \r\n   function add(int256 n) public {\r\n       sum += n;\r\n       count++;\r\n   }\r\n    \r\n   function calc() public returns (int256) {\r\n       return sum / count;\r\n   }\r\n}\r\n\r\n\r\n\r\n\r\n",
  "sourcePath": "F:/Masterarbeit Git/eth-gas-reporter/mock/contracts/AvgOnDemand.sol",
  "compiler": {
    "name": "solc",
    "version": "0.5.0+commit.1d4f565a.Emscripten.clang"
  },
  "schemaVersion": "3.0.2",
  "updatedAt": "2019-12-02T16:20:34.308Z",
  "devdoc": {
    "methods": {}
  },
  "userdoc": {
    "methods": {}
  }
}