{
  "contractName": "AvgOnDemandTwo",
  "abi": [
    {
      "constant": false,
      "inputs": [
        {
          "name": "n",
          "type": "int256"
        }
      ],
      "name": "add",
      "outputs": [],
      "payable": false,
      "stateMutability": "nonpayable",
      "type": "function"
    },
    {
      "constant": false,
      "inputs": [],
      "name": "calc",
      "outputs": [
        {
          "name": "",
          "type": "int256"
        }
      ],
      "payable": false,
      "stateMutability": "nonpayable",
      "type": "function"
    }
  ],
  "bytecode": "0x608060405234801561001057600080fd5b50610111806100206000396000f3fe6080604052600436106049576000357c0100000000000000000000000000000000000000000000000000000000900463ffffffff16806387db03b714604e57806396f1b6be146085575b600080fd5b348015605957600080fd5b50608360048036036020811015606e57600080fd5b810190808035906020019092919050505060ad565b005b348015609057600080fd5b50609760db565b6040518082815260200191505060405180910390f35b8060005401600081905550600180540160018190555060015460005481151560d157fe5b0560028190555050565b600060025490509056fea165627a7a72305820efcc84bcf62dd9a9813df19a4a316157688cd1fb081da1008ada97773baee5e90029",
  "source": "pragma solidity ^0.5.0;\n\ncontract AvgOnDemandTwo {\n   int256 sum;\n   int256 count;\n   int256 avg;\n\n   function add(int256 n) public {\n       sum = sum + n;\n       count = count + 1;\n\t   avg = sum / count;\n   }\n   \n  function calc() public returns (int256) {\n       return avg;\n   }\n}\n\n\n\n\n",
  "sourcePath": "F:/Masterarbeit Git/eth-gas-reporter/mock/contracts/AvgOnDemandTwo.sol",
  "compiler": {
    "name": "solc",
    "version": "0.5.0+commit.1d4f565a.Emscripten.clang"
  },
  "schemaVersion": "3.0.2",
  "updatedAt": "2019-12-02T16:20:34.307Z",
  "devdoc": {
    "methods": {}
  },
  "userdoc": {
    "methods": {}
  }
}