{
  "contractName": "ParityBinaryTwo",
  "abi": [
    {
      "constant": false,
      "inputs": [
        {
          "name": "n",
          "type": "int256"
        },
        {
          "name": "m",
          "type": "int256"
        }
      ],
      "name": "checkParity",
      "outputs": [],
      "payable": false,
      "stateMutability": "nonpayable",
      "type": "function"
    }
  ],
  "bytecode": "0x608060405234801561001057600080fd5b5060d68061001f6000396000f3fe608060405260043610603f576000357c0100000000000000000000000000000000000000000000000000000000900463ffffffff1680639c6514cf146044575b600080fd5b348015604f57600080fd5b50608360048036036040811015606457600080fd5b8101908080359060200190929190803590602001909291905050506085565b005b6001811660018316146000806101000a81548160ff021916908315150217905550505056fea165627a7a72305820c4a32e80c4928e7678306728664fb6a217323765f3796acf5f6c333792fb07780029",
  "source": "pragma solidity ^0.5.0;\r\n\r\ncontract ParityBinaryTwo {\r\n\tbool state;\r\n    \r\n function checkParity(int256 n, int256 m) public {\r\n        state = (n & 0x01) == (m & 0x01);\r\n   }\r\n   \r\n}\r\n",
  "sourcePath": "F:/Masterarbeit Git/eth-gas-reporter/mock/contracts/ParityBinaryTwo.sol",
  "compiler": {
    "name": "solc",
    "version": "0.5.0+commit.1d4f565a.Emscripten.clang"
  },
  "schemaVersion": "3.0.2",
  "updatedAt": "2019-12-02T16:20:34.310Z",
  "devdoc": {
    "methods": {}
  },
  "userdoc": {
    "methods": {}
  }
}