{
  "contractName": "ParityModulo",
  "abi": [
    {
      "constant": false,
      "inputs": [
        {
          "name": "n",
          "type": "int256"
        },
        {
          "name": "m",
          "type": "int256"
        }
      ],
      "name": "checkParity",
      "outputs": [],
      "payable": false,
      "stateMutability": "nonpayable",
      "type": "function"
    }
  ],
  "bytecode": "0x608060405234801561001057600080fd5b5060e68061001f6000396000f3fe608060405260043610603f576000357c0100000000000000000000000000000000000000000000000000000000900463ffffffff1680639c6514cf146044575b600080fd5b348015604f57600080fd5b50608360048036036040811015606457600080fd5b8101908080359060200190929190803590602001909291905050506085565b005b600281811515609057fe5b07600283811515609c57fe5b07146000806101000a81548160ff021916908315150217905550505056fea165627a7a72305820b17a46ac879715bbc46c99a281987821bca9fb8e87b0b6afd9a14c6f91c63afe0029",
  "source": "pragma solidity ^0.5.0;\n\ncontract ParityModulo {\n\tbool state;\n    \n function checkParity(int256 n, int256 m) public {\n       state = (n % 2 == m % 2);\n   }\n   \n}\n",
  "sourcePath": "F:/Masterarbeit Git/eth-gas-reporter/mock/contracts/ParityModulo.sol",
  "compiler": {
    "name": "solc",
    "version": "0.5.0+commit.1d4f565a.Emscripten.clang"
  },
  "schemaVersion": "3.0.2",
  "updatedAt": "2019-12-02T16:20:34.309Z",
  "devdoc": {
    "methods": {}
  },
  "userdoc": {
    "methods": {}
  }
}